{
  "address": "0xFd9b9A6B5f99f854d36FFEB801AFe4CC7f7ab982",
  "abi": [
    {
      "inputs": [
        {
          "internalType": "address[]",
          "name": "_owners",
          "type": "address[]"
        },
        {
          "internalType": "uint256",
          "name": "_numConfirmationsRequired",
          "type": "uint256"
        }
      ],
      "stateMutability": "nonpayable",
      "type": "constructor"
    },
    {
      "inputs": [
        {
          "internalType": "uint256",
          "name": "x",
          "type": "uint256"
        },
        {
          "internalType": "uint256",
          "name": "y",
          "type": "uint256"
        },
        {
          "internalType": "uint256",
          "name": "denominator",
          "type": "uint256"
        }
      ],
      "name": "PRBMath_MulDiv_Overflow",
      "type": "error"
    },
    {
      "anonymous": false,
      "inputs": [
        {
          "indexed": true,
          "internalType": "address",
          "name": "owner",
          "type": "address"
        },
        {
          "indexed": true,
          "internalType": "uint256",
          "name": "txIndex",
          "type": "uint256"
        }
      ],
      "name": "ConfirmTransaction",
      "type": "event"
    },
    {
      "anonymous": false,
      "inputs": [
        {
          "indexed": true,
          "internalType": "address",
          "name": "sender",
          "type": "address"
        },
        {
          "indexed": false,
          "internalType": "uint256",
          "name": "amount",
          "type": "uint256"
        },
        {
          "indexed": false,
          "internalType": "uint256",
          "name": "balance",
          "type": "uint256"
        }
      ],
      "name": "Deposit",
      "type": "event"
    },
    {
      "anonymous": false,
      "inputs": [
        {
          "indexed": true,
          "internalType": "address",
          "name": "token",
          "type": "address"
        },
        {
          "indexed": true,
          "internalType": "uint256",
          "name": "tokenId",
          "type": "uint256"
        },
        {
          "indexed": true,
          "internalType": "address",
          "name": "divisibleNFT",
          "type": "address"
        }
      ],
      "name": "Deposited",
      "type": "event"
    },
    {
      "anonymous": false,
      "inputs": [
        {
          "indexed": true,
          "internalType": "address",
          "name": "owner",
          "type": "address"
        },
        {
          "indexed": true,
          "internalType": "uint256",
          "name": "txIndex",
          "type": "uint256"
        }
      ],
      "name": "ExecuteTransaction",
      "type": "event"
    },
    {
      "anonymous": false,
      "inputs": [
        {
          "indexed": true,
          "internalType": "address",
          "name": "owner",
          "type": "address"
        },
        {
          "indexed": true,
          "internalType": "uint256",
          "name": "txIndex",
          "type": "uint256"
        }
      ],
      "name": "RevokeConfirmation",
      "type": "event"
    },
    {
      "anonymous": false,
      "inputs": [
        {
          "indexed": true,
          "internalType": "address",
          "name": "owner",
          "type": "address"
        },
        {
          "indexed": true,
          "internalType": "uint256",
          "name": "txIndex",
          "type": "uint256"
        },
        {
          "indexed": true,
          "internalType": "address",
          "name": "to",
          "type": "address"
        },
        {
          "indexed": false,
          "internalType": "uint256",
          "name": "value",
          "type": "uint256"
        },
        {
          "indexed": false,
          "internalType": "bytes",
          "name": "data",
          "type": "bytes"
        }
      ],
      "name": "SubmitTransaction",
      "type": "event"
    },
    {
      "inputs": [
        {
          "internalType": "uint256",
          "name": "_txIndex",
          "type": "uint256"
        }
      ],
      "name": "confirmTransaction",
      "outputs": [],
      "stateMutability": "nonpayable",
      "type": "function"
    },
    {
      "inputs": [
        {
          "internalType": "address",
          "name": "token",
          "type": "address"
        },
        {
          "internalType": "uint256",
          "name": "tokenId",
          "type": "uint256"
        }
      ],
      "name": "deposit",
      "outputs": [],
      "stateMutability": "nonpayable",
      "type": "function"
    },
    {
      "inputs": [
        {
          "internalType": "uint256",
          "name": "_txIndex",
          "type": "uint256"
        }
      ],
      "name": "executeTransaction",
      "outputs": [],
      "stateMutability": "nonpayable",
      "type": "function"
    },
    {
      "inputs": [],
      "name": "getOwners",
      "outputs": [
        {
          "internalType": "address[]",
          "name": "",
          "type": "address[]"
        }
      ],
      "stateMutability": "view",
      "type": "function"
    },
    {
      "inputs": [
        {
          "internalType": "uint256",
          "name": "_txIndex",
          "type": "uint256"
        }
      ],
      "name": "getTransaction",
      "outputs": [
        {
          "internalType": "address",
          "name": "to",
          "type": "address"
        },
        {
          "internalType": "uint256",
          "name": "value",
          "type": "uint256"
        },
        {
          "internalType": "bytes",
          "name": "data",
          "type": "bytes"
        },
        {
          "internalType": "bool",
          "name": "executed",
          "type": "bool"
        },
        {
          "internalType": "uint256",
          "name": "numConfirmations",
          "type": "uint256"
        }
      ],
      "stateMutability": "view",
      "type": "function"
    },
    {
      "inputs": [],
      "name": "getTransactionCount",
      "outputs": [
        {
          "internalType": "uint256",
          "name": "",
          "type": "uint256"
        }
      ],
      "stateMutability": "view",
      "type": "function"
    },
    {
      "inputs": [
        {
          "internalType": "uint256",
          "name": "",
          "type": "uint256"
        },
        {
          "internalType": "address",
          "name": "",
          "type": "address"
        }
      ],
      "name": "isConfirmed",
      "outputs": [
        {
          "internalType": "bool",
          "name": "",
          "type": "bool"
        }
      ],
      "stateMutability": "view",
      "type": "function"
    },
    {
      "inputs": [
        {
          "internalType": "address",
          "name": "",
          "type": "address"
        }
      ],
      "name": "isOwner",
      "outputs": [
        {
          "internalType": "bool",
          "name": "",
          "type": "bool"
        }
      ],
      "stateMutability": "view",
      "type": "function"
    },
    {
      "inputs": [],
      "name": "numConfirmationsRequired",
      "outputs": [
        {
          "internalType": "uint256",
          "name": "",
          "type": "uint256"
        }
      ],
      "stateMutability": "view",
      "type": "function"
    },
    {
      "inputs": [
        {
          "internalType": "address",
          "name": "",
          "type": "address"
        },
        {
          "internalType": "address",
          "name": "",
          "type": "address"
        },
        {
          "internalType": "uint256",
          "name": "",
          "type": "uint256"
        },
        {
          "internalType": "bytes",
          "name": "",
          "type": "bytes"
        }
      ],
      "name": "onERC721Received",
      "outputs": [
        {
          "internalType": "bytes4",
          "name": "",
          "type": "bytes4"
        }
      ],
      "stateMutability": "pure",
      "type": "function"
    },
    {
      "inputs": [
        {
          "internalType": "uint256",
          "name": "",
          "type": "uint256"
        }
      ],
      "name": "owners",
      "outputs": [
        {
          "internalType": "address",
          "name": "",
          "type": "address"
        }
      ],
      "stateMutability": "view",
      "type": "function"
    },
    {
      "inputs": [
        {
          "internalType": "uint256",
          "name": "_txIndex",
          "type": "uint256"
        }
      ],
      "name": "revokeConfirmation",
      "outputs": [],
      "stateMutability": "nonpayable",
      "type": "function"
    },
    {
      "inputs": [
        {
          "internalType": "address",
          "name": "_to",
          "type": "address"
        },
        {
          "internalType": "uint256",
          "name": "_value",
          "type": "uint256"
        },
        {
          "internalType": "bytes",
          "name": "_data",
          "type": "bytes"
        }
      ],
      "name": "submitTransaction",
      "outputs": [],
      "stateMutability": "nonpayable",
      "type": "function"
    },
    {
      "inputs": [
        {
          "internalType": "uint256",
          "name": "",
          "type": "uint256"
        }
      ],
      "name": "tokenAddresses",
      "outputs": [
        {
          "internalType": "address",
          "name": "token",
          "type": "address"
        },
        {
          "internalType": "uint256",
          "name": "amount",
          "type": "uint256"
        },
        {
          "components": [
            {
              "internalType": "address",
              "name": "token",
              "type": "address"
            },
            {
              "internalType": "uint256",
              "name": "tokenId",
              "type": "uint256"
            }
          ],
          "internalType": "struct SimulatedDAOTreasury.UnderlyingToken",
          "name": "underlyingToken",
          "type": "tuple"
        }
      ],
      "stateMutability": "view",
      "type": "function"
    },
    {
      "inputs": [
        {
          "internalType": "uint256",
          "name": "",
          "type": "uint256"
        }
      ],
      "name": "transactions",
      "outputs": [
        {
          "internalType": "address",
          "name": "to",
          "type": "address"
        },
        {
          "internalType": "uint256",
          "name": "value",
          "type": "uint256"
        },
        {
          "internalType": "bytes",
          "name": "data",
          "type": "bytes"
        },
        {
          "internalType": "bool",
          "name": "executed",
          "type": "bool"
        },
        {
          "internalType": "uint256",
          "name": "numConfirmations",
          "type": "uint256"
        }
      ],
      "stateMutability": "view",
      "type": "function"
    },
    {
      "stateMutability": "payable",
      "type": "receive"
    }
  ],
  "transactionHash": "0x055a26a2ae690278cd3ac7516ae9e80055b3e99afa35495888fe921292f57168",
  "args": [
    [
      "0x6636CFD2130Db2BE544BbaD987982d38bDDBe448",
      "0x56F2ED2AaEe26a729E91513933B0436c09d17E16",
      "0x5B1b54B5DbDbA0D77bEd0a8109E92f2EE55C1304"
    ],
    2
  ],
  "numDeployments": 1,
  "solcInputHash": "87d76c40c211420bdfe99ca34eab4e39",
  "bytecode": "0x60806040523480156200001157600080fd5b50604051620047c0380380620047c0833981016040819052620000349162000281565b60008251116200007d5760405162461bcd60e51b815260206004820152600f60248201526e1bdddb995c9cc81c995c5d5a5c9959608a1b60448201526064015b60405180910390fd5b6000811180156200008f575081518111155b620000ee5760405162461bcd60e51b815260206004820152602860248201527f696e76616c6964206e756d626572206f6620726571756972656420636f6e6669604482015267726d6174696f6e7360c01b606482015260840162000074565b60005b8251811015620002435760008382815181106200011257620001126200035b565b6020026020010151905060006001600160a01b0316816001600160a01b031603620001705760405162461bcd60e51b815260206004820152600d60248201526c34b73b30b634b21037bbb732b960991b604482015260640162000074565b6001600160a01b03811660009081526001602052604090205460ff1615620001ce5760405162461bcd60e51b815260206004820152601060248201526f6f776e6572206e6f7420756e6971756560801b604482015260640162000074565b6001600160a01b031660008181526001602081905260408220805460ff191682179055815490810182559080527f290decd9548b62a8d60345a988386fc84ba6bc95484008f6362f93160ef3e5630180546001600160a01b0319169091179055806200023a8162000371565b915050620000f1565b506002555062000399565b634e487b7160e01b600052604160045260246000fd5b80516001600160a01b03811681146200027c57600080fd5b919050565b600080604083850312156200029557600080fd5b82516001600160401b0380821115620002ad57600080fd5b818501915085601f830112620002c257600080fd5b8151602082821115620002d957620002d96200024e565b8160051b604051601f19603f830116810181811086821117156200030157620003016200024e565b6040529283528183019350848101820192898411156200032057600080fd5b948201945b838610156200034957620003398662000264565b8552948201949382019362000325565b97909101519698969750505050505050565b634e487b7160e01b600052603260045260246000fd5b6000600182016200039257634e487b7160e01b600052601160045260246000fd5b5060010190565b61441780620003a96000396000f3fe608060405260043610620000ff5760003560e01c806380f59a651162000095578063c64274741162000060578063c6427474146200039d578063d0549b8514620003c2578063e5df8b8414620003da578063ee22610b146200043257600080fd5b806380f59a6514620002ed5780639ace38c2146200032c578063a0e67e2b1462000351578063c01a8c84146200037857600080fd5b80632e7700f011620000d65780632e7700f0146200022a5780632f54bf6e146200024b57806333ea3dc8146200029057806347e7ef2414620002c857600080fd5b8063025e7c271462000146578063150b7a02146200018857806320ea8d86146200020357600080fd5b3662000141576040805134815247602082015233917f90890809c654f11d6e72a28fa60149770a0d11ec6c92319d6ceb2bb0a4ea1a15910160405180910390a2005b600080fd5b3480156200015357600080fd5b506200016b6200016536600462001643565b62000457565b6040516001600160a01b0390911681526020015b60405180910390f35b3480156200019557600080fd5b50620001d1620001a73660046200167a565b7f150b7a020000000000000000000000000000000000000000000000000000000095945050505050565b6040517fffffffff0000000000000000000000000000000000000000000000000000000090911681526020016200017f565b3480156200021057600080fd5b50620002286200022236600462001643565b62000482565b005b3480156200023757600080fd5b506004545b6040519081526020016200017f565b3480156200025857600080fd5b506200027f6200026a3660046200171e565b60016020526000908152604090205460ff1681565b60405190151581526020016200017f565b3480156200029d57600080fd5b50620002b5620002af36600462001643565b62000695565b6040516200017f95949392919062001790565b348015620002d557600080fd5b5062000228620002e7366004620017ce565b6200079b565b348015620002fa57600080fd5b506200027f6200030c366004620017fb565b600360209081526000928352604080842090915290825290205460ff1681565b3480156200033957600080fd5b50620002b56200034b36600462001643565b62000d16565b3480156200035e57600080fd5b506200036962000df8565b6040516200017f91906200182a565b3480156200038557600080fd5b50620002286200039736600462001643565b62000e5c565b348015620003aa57600080fd5b5062000228620003bc366004620018ee565b62001073565b348015620003cf57600080fd5b506200023c60025481565b348015620003e757600080fd5b50620003ff620003f936600462001643565b62001222565b604080516001600160a01b039485168152602080820194909452825190941690840152015160608201526080016200017f565b3480156200043f57600080fd5b50620002286200045136600462001643565b6200127c565b600081815481106200046857600080fd5b6000918252602090912001546001600160a01b0316905081565b3360009081526001602052604090205460ff16620004d35760405162461bcd60e51b81526020600482015260096024820152683737ba1037bbb732b960b91b60448201526064015b60405180910390fd5b600454819081106200051c5760405162461bcd60e51b81526020600482015260116024820152701d1e08191bd95cc81b9bdd08195e1a5cdd607a1b6044820152606401620004ca565b816004818154811062000533576200053362001992565b600091825260209091206003600590920201015460ff1615620005995760405162461bcd60e51b815260206004820152601360248201527f747820616c7265616479206578656375746564000000000000000000000000006044820152606401620004ca565b600060048481548110620005b157620005b162001992565b600091825260208083208784526003825260408085203386529092529220546005909102909101915060ff166200062b5760405162461bcd60e51b815260206004820152601060248201527f7478206e6f7420636f6e6669726d6564000000000000000000000000000000006044820152606401620004ca565b6001816004016000828254620006429190620019be565b90915550506000848152600360209081526040808320338085529252808320805460ff191690555186927ff0dca620e2e81f7841d07bcc105e1704fb01475b278a9d4c236e1c62945edd5591a350505050565b6000806060600080600060048781548110620006b557620006b562001992565b6000918252602090912060059091020180546001820154600383015460048401546002850180549596506001600160a01b039094169492939260ff9092169183906200070190620019d4565b80601f01602080910402602001604051908101604052809291908181526020018280546200072f90620019d4565b8015620007805780601f10620007545761010080835404028352916020019162000780565b820191906000526020600020905b8154815290600101906020018083116200076257829003601f168201915b50505050509250955095509550955095505091939590929450565b3360009081526001602052604090205460ff16620007e85760405162461bcd60e51b81526020600482015260096024820152683737ba1037bbb732b960b91b6044820152606401620004ca565b6040517f42842e0e000000000000000000000000000000000000000000000000000000008152336004820152306024820152604481018290526001600160a01b038316906342842e0e90606401600060405180830381600087803b1580156200085057600080fd5b505af115801562000865573d6000803e3d6000fd5b505050506000604051620008799062001635565b604051809103906000f08015801562000896573d6000803e3d6000fd5b506040517f095ea7b30000000000000000000000000000000000000000000000000000000081526001600160a01b038083166004830152602482018590529192509084169063095ea7b390604401600060405180830381600087803b158015620008ff57600080fd5b505af115801562000914573d6000803e3d6000fd5b50505050806001600160a01b0316635ce97db530670de0b6b3a7640000866001600160a01b031663c87b56dd876040518263ffffffff1660e01b81526004016200096091815260200190565b600060405180830381865afa1580156200097e573d6000803e3d6000fd5b505050506040513d6000823e601f3d908101601f19168201604052620009a8919081019062001a10565b87876040518663ffffffff1660e01b8152600401620009cc95949392919062001a90565b600060405180830381600087803b158015620009e757600080fd5b505af1158015620009fc573d6000803e3d6000fd5b5050604080516060810182526001600160a01b038086168252670de0b6b3a76400006020808401918252845180860186528a841681528082018a9052948401948552600580546001810182556000918252945160049095027f036b6384b5eca791c62761152d0c79bb0604c104a5fb6f4eb0703f3154bb3db08101805496861673ffffffffffffffffffffffffffffffffffffffff1997881617905592517f036b6384b5eca791c62761152d0c79bb0604c104a5fb6f4eb0703f3154bb3db1840155945180517f036b6384b5eca791c62761152d0c79bb0604c104a5fb6f4eb0703f3154bb3db284018054919095169516949094179092559101517f036b6384b5eca791c62761152d0c79bb0604c104a5fb6f4eb0703f3154bb3db3909101559150505b60005481101562000ccf576000805462000b6d9062000b539062000b4d90670de0b6b3a764000062001ace565b62001513565b62000b66670de0b6b3a764000062001513565b906200151d565b9050826001600160a01b031663fe99049a306000858154811062000b955762000b9562001992565b60009182526020822001546040517f2f745c5900000000000000000000000000000000000000000000000000000000815230600482015260248101929092526001600160a01b039081169190881690632f745c5990604401602060405180830381865afa15801562000c0b573d6000803e3d6000fd5b505050506040513d601f19601f8201168201806040525081019062000c31919062001ae8565b856040517fffffffff0000000000000000000000000000000000000000000000000000000060e087901b1681526001600160a01b03948516600482015293909216602484015260448301526064820152608401600060405180830381600087803b15801562000c9f57600080fd5b505af115801562000cb4573d6000803e3d6000fd5b5050505050808062000cc69062001b02565b91505062000b20565b50806001600160a01b031682846001600160a01b03167fb4e1304f97b5093610f51b33ddab6622388422e2dac138b0d32f93dcfbd39edf60405160405180910390a4505050565b6004818154811062000d2757600080fd5b60009182526020909120600590910201805460018201546002830180546001600160a01b03909316945090929162000d5f90620019d4565b80601f016020809104026020016040519081016040528092919081815260200182805462000d8d90620019d4565b801562000dde5780601f1062000db25761010080835404028352916020019162000dde565b820191906000526020600020905b81548152906001019060200180831162000dc057829003601f168201915b505050506003830154600490930154919260ff1691905085565b6060600080548060200260200160405190810160405280929190818152602001828054801562000e5257602002820191906000526020600020905b81546001600160a01b0316815260019091019060200180831162000e33575b5050505050905090565b3360009081526001602052604090205460ff1662000ea95760405162461bcd60e51b81526020600482015260096024820152683737ba1037bbb732b960b91b6044820152606401620004ca565b6004548190811062000ef25760405162461bcd60e51b81526020600482015260116024820152701d1e08191bd95cc81b9bdd08195e1a5cdd607a1b6044820152606401620004ca565b816004818154811062000f095762000f0962001992565b600091825260209091206003600590920201015460ff161562000f6f5760405162461bcd60e51b815260206004820152601360248201527f747820616c7265616479206578656375746564000000000000000000000000006044820152606401620004ca565b6000838152600360209081526040808320338452909152902054839060ff161562000fdd5760405162461bcd60e51b815260206004820152601460248201527f747820616c726561647920636f6e6669726d65640000000000000000000000006044820152606401620004ca565b60006004858154811062000ff55762000ff562001992565b9060005260206000209060050201905060018160040160008282546200101c919062001b1e565b90915550506000858152600360209081526040808320338085529252808320805460ff191660011790555187927f5cbe105e36805f7820e291f799d5794ff948af2a5f664e580382defb6339004191a35050505050565b3360009081526001602052604090205460ff16620010c05760405162461bcd60e51b81526020600482015260096024820152683737ba1037bbb732b960b91b6044820152606401620004ca565b600480546040805160a0810182526001600160a01b03878116825260208201878152928201868152600060608401819052608084018190526001860187559590955281517f8a35acfbc15ff81a39ae7d344fd709f28e8600b4aa8c65c6b64bfe7fe36bd19b60058602908101805473ffffffffffffffffffffffffffffffffffffffff19169290931691909117825592517f8a35acfbc15ff81a39ae7d344fd709f28e8600b4aa8c65c6b64bfe7fe36bd19c84015593519293909290917f8a35acfbc15ff81a39ae7d344fd709f28e8600b4aa8c65c6b64bfe7fe36bd19d0190620011ac908262001b87565b50606082015160038201805460ff19169115159190911790556080909101516004909101556040516001600160a01b03851690829033907fd5a05bf70715ad82a09a756320284a1b54c9ff74cd0f8cce6219e79b563fe59d9062001214908890889062001c54565b60405180910390a450505050565b600581815481106200123357600080fd5b6000918252602091829020600490910201805460018201546040805180820190915260028401546001600160a01b03908116825260039094015494810194909452911692509083565b3360009081526001602052604090205460ff16620012c95760405162461bcd60e51b81526020600482015260096024820152683737ba1037bbb732b960b91b6044820152606401620004ca565b60045481908110620013125760405162461bcd60e51b81526020600482015260116024820152701d1e08191bd95cc81b9bdd08195e1a5cdd607a1b6044820152606401620004ca565b816004818154811062001329576200132962001992565b600091825260209091206003600590920201015460ff16156200138f5760405162461bcd60e51b815260206004820152601360248201527f747820616c7265616479206578656375746564000000000000000000000000006044820152606401620004ca565b600060048481548110620013a757620013a762001992565b90600052602060002090600502019050600254816004015410156200140f5760405162461bcd60e51b815260206004820152601160248201527f63616e6e6f7420657865637574652074780000000000000000000000000000006044820152606401620004ca565b60038101805460ff191660019081179091558154908201546040516000926001600160a01b031691906200144890600286019062001c77565b60006040518083038185875af1925050503d806000811462001487576040519150601f19603f3d011682016040523d82523d6000602084013e6200148c565b606091505b5050905080620014df5760405162461bcd60e51b815260206004820152600960248201527f7478206661696c656400000000000000000000000000000000000000000000006044820152606401620004ca565b604051859033907f5445f318f4f5fcfb66592e68e0cc5822aa15664039bd5f0ffde24c5a8142b1ac90600090a35050505050565b6000815b92915050565b60006200153b6200153884670de0b6b3a76400008562001542565b90565b9392505050565b6000808060001985870985870292508281108382030391505080600003620015815783828162001576576200157662001cf5565b04925050506200153b565b838110620015cd576040517f63a05778000000000000000000000000000000000000000000000000000000008152600481018790526024810186905260448101859052606401620004ca565b600084868809600260036001881981018916988990049182028318808302840302808302840302808302840302808302840302808302840302918202909203026000889003889004909101858311909403939093029303949094049190911702949350505050565b6126d68062001d0c83390190565b6000602082840312156200165657600080fd5b5035919050565b80356001600160a01b03811681146200167557600080fd5b919050565b6000806000806000608086880312156200169357600080fd5b6200169e866200165d565b9450620016ae602087016200165d565b935060408601359250606086013567ffffffffffffffff80821115620016d357600080fd5b818801915088601f830112620016e857600080fd5b813581811115620016f857600080fd5b8960208285010111156200170b57600080fd5b9699959850939650602001949392505050565b6000602082840312156200173157600080fd5b6200153b826200165d565b60005b83811015620017595781810151838201526020016200173f565b50506000910152565b600081518084526200177c8160208601602086016200173c565b601f01601f19169290920160200192915050565b6001600160a01b038616815284602082015260a060408201526000620017ba60a083018662001762565b931515606083015250608001529392505050565b60008060408385031215620017e257600080fd5b620017ed836200165d565b946020939093013593505050565b600080604083850312156200180f57600080fd5b8235915062001821602084016200165d565b90509250929050565b6020808252825182820181905260009190848201906040850190845b818110156200186d5783516001600160a01b03168352928401929184019160010162001846565b50909695505050505050565b634e487b7160e01b600052604160045260246000fd5b604051601f8201601f1916810167ffffffffffffffff81118282101715620018bb57620018bb62001879565b604052919050565b600067ffffffffffffffff821115620018e057620018e062001879565b50601f01601f191660200190565b6000806000606084860312156200190457600080fd5b6200190f846200165d565b925060208401359150604084013567ffffffffffffffff8111156200193357600080fd5b8401601f810186136200194557600080fd5b80356200195c6200195682620018c3565b6200188f565b8181528760208385010111156200197257600080fd5b816020840160208301376000602083830101528093505050509250925092565b634e487b7160e01b600052603260045260246000fd5b634e487b7160e01b600052601160045260246000fd5b81810381811115620015175762001517620019a8565b600181811c90821680620019e957607f821691505b60208210810362001a0a57634e487b7160e01b600052602260045260246000fd5b50919050565b60006020828403121562001a2357600080fd5b815167ffffffffffffffff81111562001a3b57600080fd5b8201601f8101841362001a4d57600080fd5b805162001a5e6200195682620018c3565b81815285602083850101111562001a7457600080fd5b62001a878260208301602086016200173c565b95945050505050565b60006001600160a01b03808816835286602084015260a0604084015262001abb60a084018762001762565b9416606083015250608001529392505050565b8082028115828204841417620015175762001517620019a8565b60006020828403121562001afb57600080fd5b5051919050565b60006001820162001b175762001b17620019a8565b5060010190565b80820180821115620015175762001517620019a8565b601f82111562001b8257600081815260208120601f850160051c8101602086101562001b5d5750805b601f850160051c820191505b8181101562001b7e5782815560010162001b69565b5050505b505050565b815167ffffffffffffffff81111562001ba45762001ba462001879565b62001bbc8162001bb58454620019d4565b8462001b34565b602080601f83116001811462001bf4576000841562001bdb5750858301515b600019600386901b1c1916600185901b17855562001b7e565b600085815260208120601f198616915b8281101562001c255788860151825594840194600190910190840162001c04565b508582101562001c445787850151600019600388901b60f8161c191681555b5050505050600190811b01905550565b82815260406020820152600062001c6f604083018462001762565b949350505050565b600080835462001c8781620019d4565b6001828116801562001ca2576001811462001cb85762001ce9565b60ff198416875282151583028701945062001ce9565b8760005260208060002060005b8581101562001ce05781548a82015290840190820162001cc5565b50505082870194505b50929695505050505050565b634e487b7160e01b600052601260045260246000fdfe60806040523480156200001157600080fd5b506040518060400160405280600c81526020016b111a5d9a5cda589b1953919560a21b815250604051806040016040528060048152602001631113919560e21b815250816000908162000065919062000192565b50600162000074828262000192565b505050620000916200008b6200009760201b60201c565b6200009b565b6200025e565b3390565b600b80546001600160a01b038381166001600160a01b0319831681179093556040519116919082907f8be0079c531659141344cd1fd0a4f28419497f9722a3daafe3b4186f6b6457e090600090a35050565b634e487b7160e01b600052604160045260246000fd5b600181811c908216806200011857607f821691505b6020821081036200013957634e487b7160e01b600052602260045260246000fd5b50919050565b601f8211156200018d57600081815260208120601f850160051c81016020861015620001685750805b601f850160051c820191505b81811015620001895782815560010162000174565b5050505b505050565b81516001600160401b03811115620001ae57620001ae620000ed565b620001c681620001bf845462000103565b846200013f565b602080601f831160018114620001fe5760008415620001e55750858301515b600019600386901b1c1916600185901b17855562000189565b600085815260208120601f198616915b828110156200022f578886015182559484019460019091019084016200020e565b50858210156200024e5787850151600019600388901b60f8161c191681555b5050505050600190811b01905550565b612468806200026e6000396000f3fe608060405234801561001057600080fd5b50600436106101ae5760003560e01c806370a08231116100ee578063b88d4fde11610097578063e985e9c511610071578063e985e9c51461039f578063ee719bc8146103db578063f2fde38b1461040e578063fe99049a1461042157600080fd5b8063b88d4fde14610359578063c2507ac11461036c578063c87b56dd1461038c57600080fd5b80638da5cb5b116100c85780638da5cb5b1461032d57806395d89b411461033e578063a22cb4651461034657600080fd5b806370a08231146102ff578063715018a61461031257806375f26e631461031a57600080fd5b806323b872dd1161015b57806342966c681161013557806342966c68146102b35780634f6ccce7146102c65780635ce97db5146102d95780636352211e146102ec57600080fd5b806323b872dd1461027a5780632f745c591461028d57806342842e0e146102a057600080fd5b8063095ea7b31161018c578063095ea7b31461021b578063150b7a021461023057806318160ddd1461026857600080fd5b806301ffc9a7146101b357806306fdde03146101db578063081812fc146101f0575b600080fd5b6101c66101c1366004611e07565b610434565b60405190151581526020015b60405180910390f35b6101e3610445565b6040516101d29190611e74565b6102036101fe366004611e87565b6104d7565b6040516001600160a01b0390911681526020016101d2565b61022e610229366004611ebc565b6104fe565b005b61024f61023e366004611ee6565b630a85bd0160e11b95945050505050565b6040516001600160e01b031990911681526020016101d2565b6009545b6040519081526020016101d2565b61022e610288366004611f81565b610634565b61026c61029b366004611ebc565b6106ac565b61022e6102ae366004611f81565b610754565b61022e6102c1366004611e87565b61076f565b61026c6102d4366004611e87565b6107e6565b61022e6102e7366004612049565b61088a565b6102036102fa366004611e87565b6109e4565b61026c61030d3660046120cd565b610a49565b61022e610ae3565b61022e6103283660046120cd565b610af7565b600b546001600160a01b0316610203565b6101e3610bea565b61022e6103543660046120e8565b610bf9565b61022e610367366004612124565b610c08565b61026c61037a366004611e87565b6000908152600d602052604090205490565b6101e361039a366004611e87565b610c86565b6101c66103ad3660046121a0565b6001600160a01b03918216600090815260056020908152604080832093909416825291909152205460ff1690565b600e54600f54601054604080516001600160a01b039094168452602084019290925260ff161515908201526060016101d2565b61022e61041c3660046120cd565b610c91565b61022e61042f3660046121d3565b610d1e565b600061043f82610dea565b92915050565b60606000805461045490612215565b80601f016020809104026020016040519081016040528092919081815260200182805461048090612215565b80156104cd5780601f106104a2576101008083540402835291602001916104cd565b820191906000526020600020905b8154815290600101906020018083116104b057829003601f168201915b5050505050905090565b60006104e282610e28565b506000908152600460205260409020546001600160a01b031690565b6000610509826109e4565b9050806001600160a01b0316836001600160a01b0316036105975760405162461bcd60e51b815260206004820152602160248201527f4552433732313a20617070726f76616c20746f2063757272656e74206f776e6560448201527f720000000000000000000000000000000000000000000000000000000000000060648201526084015b60405180910390fd5b336001600160a01b03821614806105b357506105b381336103ad565b6106255760405162461bcd60e51b815260206004820152603d60248201527f4552433732313a20617070726f76652063616c6c6572206973206e6f7420746f60448201527f6b656e206f776e6572206f7220617070726f76656420666f7220616c6c000000606482015260840161058e565b61062f8383610e8c565b505050565b61063f335b82610efa565b6106a15760405162461bcd60e51b815260206004820152602d60248201527f4552433732313a2063616c6c6572206973206e6f7420746f6b656e206f776e6560448201526c1c881bdc88185c1c1c9bdd9959609a1b606482015260840161058e565b61062f838383610f79565b60006106b783610a49565b821061072b5760405162461bcd60e51b815260206004820152602b60248201527f455243373231456e756d657261626c653a206f776e657220696e646578206f7560448201527f74206f6620626f756e6473000000000000000000000000000000000000000000606482015260840161058e565b506001600160a01b03919091166000908152600760209081526040808320938352929052205490565b61062f83838360405180602001604052806000815250610c08565b61077833610639565b6107da5760405162461bcd60e51b815260206004820152602d60248201527f4552433732313a2063616c6c6572206973206e6f7420746f6b656e206f776e6560448201526c1c881bdc88185c1c1c9bdd9959609a1b606482015260840161058e565b6107e381610f98565b50565b60006107f160095490565b82106108655760405162461bcd60e51b815260206004820152602c60248201527f455243373231456e756d657261626c653a20676c6f62616c20696e646578206f60448201527f7574206f6620626f756e64730000000000000000000000000000000000000000606482015260840161058e565b600982815481106108785761087861224f565b90600052602060002001549050919050565b610892610fb2565b60105460ff16156108e55760405162461bcd60e51b815260206004820152601a60248201527f4120746f6b656e20697320616c72656164792077726170706564000000000000604482015260640161058e565b6108f085858561100c565b604080516060810182526001600160a01b03841680825260208201849052600191909201819052600e80546001600160a01b03191683179055600f8390556010805460ff191690911790556342842e0e336040516001600160e01b031960e084901b1681526001600160a01b03909116600482015230602482015260448101849052606401600060405180830381600087803b15801561098f57600080fd5b505af11580156109a3573d6000803e3d6000fd5b50506040518392506001600160a01b03851691507f4700c1726b4198077cd40320a32c45265a1910521eb0ef713dd1d8412413d7fc90600090a35050505050565b6000818152600260205260408120546001600160a01b03168061043f5760405162461bcd60e51b815260206004820152601860248201527f4552433732313a20696e76616c696420746f6b656e2049440000000000000000604482015260640161058e565b60006001600160a01b038216610ac75760405162461bcd60e51b815260206004820152602960248201527f4552433732313a2061646472657373207a65726f206973206e6f74206120766160448201527f6c6964206f776e65720000000000000000000000000000000000000000000000606482015260840161058e565b506001600160a01b031660009081526003602052604090205490565b610aeb610fb2565b610af56000611017565b565b610aff610fb2565b600e8054600f8054601080546001600160a01b0319851690955560009283905560ff19909416909355604080517f42842e0e0000000000000000000000000000000000000000000000000000000081523060048201526001600160a01b03868116602483015260448201869052915191909316939284926342842e0e9260648084019382900301818387803b158015610b9757600080fd5b505af1158015610bab573d6000803e3d6000fd5b50506040518392506001600160a01b03851691507f95ae649bfaaef9def56a52f4fb2d9e8fa5496bb7082930e442c74cc76b03dcb390600090a3505050565b60606001805461045490612215565b610c04338383611069565b5050565b610c123383610efa565b610c745760405162461bcd60e51b815260206004820152602d60248201527f4552433732313a2063616c6c6572206973206e6f7420746f6b656e206f776e6560448201526c1c881bdc88185c1c1c9bdd9959609a1b606482015260840161058e565b610c8084848484611137565b50505050565b606061043f826111b5565b610c99610fb2565b6001600160a01b038116610d155760405162461bcd60e51b815260206004820152602660248201527f4f776e61626c653a206e6577206f776e657220697320746865207a65726f206160448201527f6464726573730000000000000000000000000000000000000000000000000000606482015260840161058e565b6107e381611017565b6000828152600d6020526040902054811115610d7c5760405162461bcd60e51b815260206004820152601360248201527f616d6f756e7420697320746f6f206c6172676500000000000000000000000000604482015260640161058e565b6000828152600d60205260409020548103610da157610d9c848484610754565b610dac565b610dac8383836112bd565b8082846001600160a01b03167f75ed582c3a15fc6472d0f30f4858f05808a5db88dfb1fbc78d80a5cc7a7c3aa060405160405180910390a450505050565b60006001600160e01b031982167f780e9d6300000000000000000000000000000000000000000000000000000000148061043f575061043f826112f8565b6000818152600260205260409020546001600160a01b03166107e35760405162461bcd60e51b815260206004820152601860248201527f4552433732313a20696e76616c696420746f6b656e2049440000000000000000604482015260640161058e565b600081815260046020526040902080546001600160a01b0319166001600160a01b0384169081179091558190610ec1826109e4565b6001600160a01b03167f8c5be1e5ebec7d5bd14f71427d1e84f3dd0314c0f7b2291e5b200ac8c7c3b92560405160405180910390a45050565b600080610f06836109e4565b9050806001600160a01b0316846001600160a01b03161480610f4d57506001600160a01b0380821660009081526005602090815260408083209388168352929052205460ff165b80610f715750836001600160a01b0316610f66846104d7565b6001600160a01b0316145b949350505050565b61062f838383600d600086815260200190815260200160002054610d1e565b610fa181611393565b6000908152600d6020526040812055565b600b546001600160a01b03163314610af55760405162461bcd60e51b815260206004820181905260248201527f4f776e61626c653a2063616c6c6572206973206e6f7420746865206f776e6572604482015260640161058e565b61062f8383836113d3565b600b80546001600160a01b038381166001600160a01b0319831681179093556040519116919082907f8be0079c531659141344cd1fd0a4f28419497f9722a3daafe3b4186f6b6457e090600090a35050565b816001600160a01b0316836001600160a01b0316036110ca5760405162461bcd60e51b815260206004820152601960248201527f4552433732313a20617070726f766520746f2063616c6c657200000000000000604482015260640161058e565b6001600160a01b03838116600081815260056020908152604080832094871680845294825291829020805460ff191686151590811790915591519182527f17307eab39ab6107e8899845ad3d59bd9653f200f220920489ca2b5937696c31910160405180910390a3505050565b611142848484610f79565b61114e84848484611413565b610c805760405162461bcd60e51b815260206004820152603260248201527f4552433732313a207472616e7366657220746f206e6f6e20455243373231526560448201527131b2b4bb32b91034b6b83632b6b2b73a32b960711b606482015260840161058e565b60606111c082610e28565b600082815260066020526040812080546111d990612215565b80601f016020809104026020016040519081016040528092919081815260200182805461120590612215565b80156112525780601f1061122757610100808354040283529160200191611252565b820191906000526020600020905b81548152906001019060200180831161123557829003601f168201915b50505050509050600061127060408051602081019091526000815290565b90508051600003611282575092915050565b8151156112b457808260405160200161129c929190612265565b60405160208183030381529060405292505050919050565b610f718461155f565b6112d083826112cb856111b5565b6113d3565b6000828152600d6020526040812080548392906112ee908490612294565b9091555050505050565b60006001600160e01b031982167f80ac58cd00000000000000000000000000000000000000000000000000000000148061135b57506001600160e01b031982167f5b5e139f00000000000000000000000000000000000000000000000000000000145b8061043f57507f01ffc9a7000000000000000000000000000000000000000000000000000000006001600160e01b031983161461043f565b61139c816115d3565b600081815260066020526040902080546113b590612215565b1590506107e35760008181526006602052604081206107e391611da3565b60006113de600c5490565b90506113ee600c80546001019055565b6113f88482611676565b6000818152600d60205260409020839055610c808183611690565b60006001600160a01b0384163b1561155457604051630a85bd0160e11b81526001600160a01b0385169063150b7a02906114579033908990889088906004016122b5565b6020604051808303816000875af1925050508015611492575060408051601f3d908101601f1916820190925261148f918101906122f1565b60015b61153a573d8080156114c0576040519150601f19603f3d011682016040523d82523d6000602084013e6114c5565b606091505b5080516000036115325760405162461bcd60e51b815260206004820152603260248201527f4552433732313a207472616e7366657220746f206e6f6e20455243373231526560448201527131b2b4bb32b91034b6b83632b6b2b73a32b960711b606482015260840161058e565b805181602001fd5b6001600160e01b031916630a85bd0160e11b149050610f71565b506001949350505050565b606061156a82610e28565b600061158160408051602081019091526000815290565b905060008151116115a157604051806020016040528060008152506115cc565b806115ab84611732565b6040516020016115bc929190612265565b6040516020818303038152906040525b9392505050565b60006115de826109e4565b90506115ee8160008460016117d2565b6115f7826109e4565b600083815260046020908152604080832080546001600160a01b03199081169091556001600160a01b0385168085526003845282852080546000190190558785526002909352818420805490911690555192935084927fddf252ad1be2c89b69c2b068fc378daa952ba7f163c4a11628f55a4df523b3ef908390a45050565b610c048282604051806020016040528060008152506117de565b6000828152600260205260409020546001600160a01b031661171a5760405162461bcd60e51b815260206004820152602e60248201527f45524337323155524953746f726167653a2055524920736574206f66206e6f6e60448201527f6578697374656e7420746f6b656e000000000000000000000000000000000000606482015260840161058e565b600082815260066020526040902061062f828261235c565b6060600061173f8361185c565b600101905060008167ffffffffffffffff81111561175f5761175f611fbd565b6040519080825280601f01601f191660200182016040528015611789576020820181803683370190505b5090508181016020015b600019017f3031323334353637383961626364656600000000000000000000000000000000600a86061a8153600a850494508461179357509392505050565b610c808484848461193e565b6117e88383611a7a565b6117f56000848484611413565b61062f5760405162461bcd60e51b815260206004820152603260248201527f4552433732313a207472616e7366657220746f206e6f6e20455243373231526560448201527131b2b4bb32b91034b6b83632b6b2b73a32b960711b606482015260840161058e565b6000807a184f03e93ff9f4daa797ed6e38ed64bf6a1f01000000000000000083106118a5577a184f03e93ff9f4daa797ed6e38ed64bf6a1f010000000000000000830492506040015b6d04ee2d6d415b85acef810000000083106118d1576d04ee2d6d415b85acef8100000000830492506020015b662386f26fc1000083106118ef57662386f26fc10000830492506010015b6305f5e1008310611907576305f5e100830492506008015b612710831061191b57612710830492506004015b6064831061192d576064830492506002015b600a831061043f5760010192915050565b60018111156119b55760405162461bcd60e51b815260206004820152603560248201527f455243373231456e756d657261626c653a20636f6e736563757469766520747260448201527f616e7366657273206e6f7420737570706f727465640000000000000000000000606482015260840161058e565b816001600160a01b038516611a1157611a0c81600980546000838152600a60205260408120829055600182018355919091527f6e1540171b6c0c960b71a7020d9f60077f6af931a8bbf590da0223dacf75c7af0155565b611a34565b836001600160a01b0316856001600160a01b031614611a3457611a348582611c13565b6001600160a01b038416611a5057611a4b81611cb0565b611a73565b846001600160a01b0316846001600160a01b031614611a7357611a738482611d5f565b5050505050565b6001600160a01b038216611ad05760405162461bcd60e51b815260206004820181905260248201527f4552433732313a206d696e7420746f20746865207a65726f2061646472657373604482015260640161058e565b6000818152600260205260409020546001600160a01b031615611b355760405162461bcd60e51b815260206004820152601c60248201527f4552433732313a20746f6b656e20616c7265616479206d696e74656400000000604482015260640161058e565b611b436000838360016117d2565b6000818152600260205260409020546001600160a01b031615611ba85760405162461bcd60e51b815260206004820152601c60248201527f4552433732313a20746f6b656e20616c7265616479206d696e74656400000000604482015260640161058e565b6001600160a01b038216600081815260036020908152604080832080546001019055848352600290915280822080546001600160a01b0319168417905551839291907fddf252ad1be2c89b69c2b068fc378daa952ba7f163c4a11628f55a4df523b3ef908290a45050565b60006001611c2084610a49565b611c2a9190612294565b600083815260086020526040902054909150808214611c7d576001600160a01b03841660009081526007602090815260408083208584528252808320548484528184208190558352600890915290208190555b5060009182526008602090815260408084208490556001600160a01b039094168352600781528383209183525290812055565b600954600090611cc290600190612294565b6000838152600a602052604081205460098054939450909284908110611cea57611cea61224f565b906000526020600020015490508060098381548110611d0b57611d0b61224f565b6000918252602080832090910192909255828152600a90915260408082208490558582528120556009805480611d4357611d4361241c565b6001900381819060005260206000200160009055905550505050565b6000611d6a83610a49565b6001600160a01b039093166000908152600760209081526040808320868452825280832085905593825260089052919091209190915550565b508054611daf90612215565b6000825580601f10611dbf575050565b601f0160209004906000526020600020908101906107e391905b80821115611ded5760008155600101611dd9565b5090565b6001600160e01b0319811681146107e357600080fd5b600060208284031215611e1957600080fd5b81356115cc81611df1565b60005b83811015611e3f578181015183820152602001611e27565b50506000910152565b60008151808452611e60816020860160208601611e24565b601f01601f19169290920160200192915050565b6020815260006115cc6020830184611e48565b600060208284031215611e9957600080fd5b5035919050565b80356001600160a01b0381168114611eb757600080fd5b919050565b60008060408385031215611ecf57600080fd5b611ed883611ea0565b946020939093013593505050565b600080600080600060808688031215611efe57600080fd5b611f0786611ea0565b9450611f1560208701611ea0565b935060408601359250606086013567ffffffffffffffff80821115611f3957600080fd5b818801915088601f830112611f4d57600080fd5b813581811115611f5c57600080fd5b896020828501011115611f6e57600080fd5b9699959850939650602001949392505050565b600080600060608486031215611f9657600080fd5b611f9f84611ea0565b9250611fad60208501611ea0565b9150604084013590509250925092565b634e487b7160e01b600052604160045260246000fd5b600067ffffffffffffffff80841115611fee57611fee611fbd565b604051601f8501601f19908116603f0116810190828211818310171561201657612016611fbd565b8160405280935085815286868601111561202f57600080fd5b858560208301376000602087830101525050509392505050565b600080600080600060a0868803121561206157600080fd5b61206a86611ea0565b945060208601359350604086013567ffffffffffffffff81111561208d57600080fd5b8601601f8101881361209e57600080fd5b6120ad88823560208401611fd3565b9350506120bc60608701611ea0565b949793965091946080013592915050565b6000602082840312156120df57600080fd5b6115cc82611ea0565b600080604083850312156120fb57600080fd5b61210483611ea0565b91506020830135801515811461211957600080fd5b809150509250929050565b6000806000806080858703121561213a57600080fd5b61214385611ea0565b935061215160208601611ea0565b925060408501359150606085013567ffffffffffffffff81111561217457600080fd5b8501601f8101871361218557600080fd5b61219487823560208401611fd3565b91505092959194509250565b600080604083850312156121b357600080fd5b6121bc83611ea0565b91506121ca60208401611ea0565b90509250929050565b600080600080608085870312156121e957600080fd5b6121f285611ea0565b935061220060208601611ea0565b93969395505050506040820135916060013590565b600181811c9082168061222957607f821691505b60208210810361224957634e487b7160e01b600052602260045260246000fd5b50919050565b634e487b7160e01b600052603260045260246000fd5b60008351612277818460208801611e24565b83519083019061228b818360208801611e24565b01949350505050565b8181038181111561043f57634e487b7160e01b600052601160045260246000fd5b60006001600160a01b038087168352808616602084015250836040830152608060608301526122e76080830184611e48565b9695505050505050565b60006020828403121561230357600080fd5b81516115cc81611df1565b601f82111561062f57600081815260208120601f850160051c810160208610156123355750805b601f850160051c820191505b8181101561235457828155600101612341565b505050505050565b815167ffffffffffffffff81111561237657612376611fbd565b61238a816123848454612215565b8461230e565b602080601f8311600181146123bf57600084156123a75750858301515b600019600386901b1c1916600185901b178555612354565b600085815260208120601f198616915b828110156123ee578886015182559484019460019091019084016123cf565b508582101561240c5787850151600019600388901b60f8161c191681555b5050505050600190811b01905550565b634e487b7160e01b600052603160045260246000fdfea26469706673582212203507915c65fae4e8c4fbc18e8032f94505ca4430530a12c5734384df075f695264736f6c63430008120033a2646970667358221220b7abefa2f677508c1347a72a35983c019f88d4b7ffd00874eb9b875d24bdfd3f64736f6c63430008120033",
  "devdoc": {
    "kind": "dev",
    "methods": {},
    "version": 1
  },
  "userdoc": {
    "errors": {
      "PRBMath_MulDiv_Overflow(uint256,uint256,uint256)": [
        {
          "notice": "Emitted when the ending result in `mulDiv` would overflow uint256."
        }
      ]
    },
    "kind": "user",
    "methods": {},
    "version": 1
  },
  "storageLayout": {
    "storage": [
      {
        "astId": 11357,
        "contract": "contracts/DAOTreasury.sol:SimulatedDAOTreasury",
        "label": "owners",
        "offset": 0,
        "slot": "0",
        "type": "t_array(t_address)dyn_storage"
      },
      {
        "astId": 11361,
        "contract": "contracts/DAOTreasury.sol:SimulatedDAOTreasury",
        "label": "isOwner",
        "offset": 0,
        "slot": "1",
        "type": "t_mapping(t_address,t_bool)"
      },
      {
        "astId": 11363,
        "contract": "contracts/DAOTreasury.sol:SimulatedDAOTreasury",
        "label": "numConfirmationsRequired",
        "offset": 0,
        "slot": "2",
        "type": "t_uint256"
      },
      {
        "astId": 11380,
        "contract": "contracts/DAOTreasury.sol:SimulatedDAOTreasury",
        "label": "isConfirmed",
        "offset": 0,
        "slot": "3",
        "type": "t_mapping(t_uint256,t_mapping(t_address,t_bool))"
      },
      {
        "astId": 11384,
        "contract": "contracts/DAOTreasury.sol:SimulatedDAOTreasury",
        "label": "transactions",
        "offset": 0,
        "slot": "4",
        "type": "t_array(t_struct(Transaction)11374_storage)dyn_storage"
      },
      {
        "astId": 11409,
        "contract": "contracts/DAOTreasury.sol:SimulatedDAOTreasury",
        "label": "tokenAddresses",
        "offset": 0,
        "slot": "5",
        "type": "t_array(t_struct(WrappedToken)11405_storage)dyn_storage"
      }
    ],
    "types": {
      "t_address": {
        "encoding": "inplace",
        "label": "address",
        "numberOfBytes": "20"
      },
      "t_array(t_address)dyn_storage": {
        "base": "t_address",
        "encoding": "dynamic_array",
        "label": "address[]",
        "numberOfBytes": "32"
      },
      "t_array(t_struct(Transaction)11374_storage)dyn_storage": {
        "base": "t_struct(Transaction)11374_storage",
        "encoding": "dynamic_array",
        "label": "struct SimulatedDAOTreasury.Transaction[]",
        "numberOfBytes": "32"
      },
      "t_array(t_struct(WrappedToken)11405_storage)dyn_storage": {
        "base": "t_struct(WrappedToken)11405_storage",
        "encoding": "dynamic_array",
        "label": "struct SimulatedDAOTreasury.WrappedToken[]",
        "numberOfBytes": "32"
      },
      "t_bool": {
        "encoding": "inplace",
        "label": "bool",
        "numberOfBytes": "1"
      },
      "t_bytes_storage": {
        "encoding": "bytes",
        "label": "bytes",
        "numberOfBytes": "32"
      },
      "t_mapping(t_address,t_bool)": {
        "encoding": "mapping",
        "key": "t_address",
        "label": "mapping(address => bool)",
        "numberOfBytes": "32",
        "value": "t_bool"
      },
      "t_mapping(t_uint256,t_mapping(t_address,t_bool))": {
        "encoding": "mapping",
        "key": "t_uint256",
        "label": "mapping(uint256 => mapping(address => bool))",
        "numberOfBytes": "32",
        "value": "t_mapping(t_address,t_bool)"
      },
      "t_struct(Transaction)11374_storage": {
        "encoding": "inplace",
        "label": "struct SimulatedDAOTreasury.Transaction",
        "members": [
          {
            "astId": 11365,
            "contract": "contracts/DAOTreasury.sol:SimulatedDAOTreasury",
            "label": "to",
            "offset": 0,
            "slot": "0",
            "type": "t_address"
          },
          {
            "astId": 11367,
            "contract": "contracts/DAOTreasury.sol:SimulatedDAOTreasury",
            "label": "value",
            "offset": 0,
            "slot": "1",
            "type": "t_uint256"
          },
          {
            "astId": 11369,
            "contract": "contracts/DAOTreasury.sol:SimulatedDAOTreasury",
            "label": "data",
            "offset": 0,
            "slot": "2",
            "type": "t_bytes_storage"
          },
          {
            "astId": 11371,
            "contract": "contracts/DAOTreasury.sol:SimulatedDAOTreasury",
            "label": "executed",
            "offset": 0,
            "slot": "3",
            "type": "t_bool"
          },
          {
            "astId": 11373,
            "contract": "contracts/DAOTreasury.sol:SimulatedDAOTreasury",
            "label": "numConfirmations",
            "offset": 0,
            "slot": "4",
            "type": "t_uint256"
          }
        ],
        "numberOfBytes": "160"
      },
      "t_struct(UnderlyingToken)11397_storage": {
        "encoding": "inplace",
        "label": "struct SimulatedDAOTreasury.UnderlyingToken",
        "members": [
          {
            "astId": 11394,
            "contract": "contracts/DAOTreasury.sol:SimulatedDAOTreasury",
            "label": "token",
            "offset": 0,
            "slot": "0",
            "type": "t_address"
          },
          {
            "astId": 11396,
            "contract": "contracts/DAOTreasury.sol:SimulatedDAOTreasury",
            "label": "tokenId",
            "offset": 0,
            "slot": "1",
            "type": "t_uint256"
          }
        ],
        "numberOfBytes": "64"
      },
      "t_struct(WrappedToken)11405_storage": {
        "encoding": "inplace",
        "label": "struct SimulatedDAOTreasury.WrappedToken",
        "members": [
          {
            "astId": 11399,
            "contract": "contracts/DAOTreasury.sol:SimulatedDAOTreasury",
            "label": "token",
            "offset": 0,
            "slot": "0",
            "type": "t_address"
          },
          {
            "astId": 11401,
            "contract": "contracts/DAOTreasury.sol:SimulatedDAOTreasury",
            "label": "amount",
            "offset": 0,
            "slot": "1",
            "type": "t_uint256"
          },
          {
            "astId": 11404,
            "contract": "contracts/DAOTreasury.sol:SimulatedDAOTreasury",
            "label": "underlyingToken",
            "offset": 0,
            "slot": "2",
            "type": "t_struct(UnderlyingToken)11397_storage"
          }
        ],
        "numberOfBytes": "128"
      },
      "t_uint256": {
        "encoding": "inplace",
        "label": "uint256",
        "numberOfBytes": "32"
      }
    }
  }
}